:020000040800F2
:1000000060510020450100084D01000873480008B8
:1000100051010008530100085501000800000000CC
:100020000000000000000000000000005701000870
:100030005901000800000000FB470008CF580008E5
:100040005F0100085F0100085F010008D1D90008C6
:100050005F0100085F010008B9AA00085F010008FD
:1000600015AC00086BAC000879AB00085F01000814
:100070005F0100085F0100085F0100085F010008E0
:100080005F0100085F0100085F0100085F010008D0
:100090005F0100085F0100085F0100085F010008C0
:1000A0005F0100085F0100085F0100085F010008B0
:1000B0005F0100085F0100085F0100085F010008A0
:1000C0005F0100085F0100085F0100085F01000890
:1000D0005F0100085F0100089FDB0008BF5B0008AC
:1000E0005F0100085F0100085F0100085F01000870
:1000F0005F0100085F0100085F0100085F01000860
:100100005F0100088DD000085F0100085F01000852
:100110005F0100085F0100085F0100085F0100083F
:100120005F0100085F0100085F0100085F0100082F
:10013000DFF80CD011F048FC004800475F210008B0
:10014000605100200648804706480047FEE7FEE76A
:10015000FEE7FEE7FEE7FEE7FEE7FEE7FEE7FEE777
:1001600047020008310100080CB500200190009002
:100170006C48006840F480306A49086000BF6948F4
:10018000006800F4003000900198401C0190009835
:1001900018B90198B0F5A06FF1D16248006800F479
:1001A000003010B10120009001E000200090009884
:1001B000012843D15C48006840F010005A490860AB
:1001C0000846006820F0030008600846006840F018
:1001D0000200086053484068524948600846406839
:1001E00048600846406840F48060486008464068BF
:1001F00020F47C1048600846406840F4E8104860ED
:100200000846006840F08070086000BF45480068FC
:1002100000F000700028F9D04248406820F0030048
:10022000404948600846406840F00200486000BF0E
:100230003C48406800F00C000828F9D10CBD10B50E
:10024000FFF792FF10BD10B53648006840F001007E
:1002500034490860084640683449084031494860DC
:1002600008460068324908402E4908600846006880
:1002700020F4802008600846406820F4FE004860B2
:100280004FF41F008860FFF7DAFF4FF00060294944
:10029000086010BD10B5002100200022214B5B68D2
:1002A00003F00C0121B1042906D0082928D107E068
:1002B000214B224C236027E01F4B204C236023E07E
:1002C000184B5B6803F47010164B5B6803F48032C4
:1002D000022303EB904022B9194B4343174C236090
:1002E0000DE0104B5B6803F4003323B1144B434320
:1002F000124C236003E0104B4343104C236003E097
:100300000D4B0E4C236000BF00BF064B5B68C3F370
:1003100003130C4CE15C094B1B68CB40074C23607A
:1003200010BD000000100240002002400000FFF855
:10033000FFFFF6FE08ED00E000127A00000000204A
:1003400000093D000400002031490143314A116099
:10035000704770B5002100230F22C47804B32D4CE0
:10036000246804F4E064C4F5E064210AC1F10403E4
:10037000CA40447804FA03F1847814402143090107
:10038000254C0678A155047804F01F050124AC40E3
:1003900005786D11AD0005F1E025C5F8004109E0D3
:1003A000047804F01F050124AC401C4D067876113A
:1003B00045F8264070BD1A4A0A400243154B1B1FE0
:1003C0001A60704739B1134A121D12680243114B6B
:1003D0001B1D1A6006E00F4A121D126882430D4B66
:1003E0001B1D1A607047042808D14FF0E0210969ED
:1003F00041F004014FF0E022116107E04FF0E021ED
:10040000096921F004014FF0E022116170470000FA
:100410000000FA050CED00E000E400E080E100E0FF
:1004200080FFFF1F10B5012001F0D2F8002001F07D
:10043000CFF810BD2A49086070472949091F086094
:100440007047274984310860704701460020254ADB
:1004500010884FF67F4210400843224A10807047B0
:10046000014600201F4A10884FF680721040084352
:100470001C4A1080704708B500220092194A2C3A95
:100480000092009A02440092009A116008BD08B5DB
:1004900001460020009013482C3800900098084432
:1004A00000900098008808BD0D489C300068C0B2DC
:1004B00070470C480830008840F0010009490831B5
:1004C000088070470648A0300068C0B270470548F1
:1004D0000830008840F00200024908310880704767
:1004E00004860D422C6C004001684FF6FE721140EC
:1004F00001600021016041608160C1608D498842D6
:1005000008D18C490839496841F00F01894A083AF5
:1005100051608AE087491431884208D185490839F9
:10052000496841F0F001834A083A51607DE0814911
:100530002831884208D17F490839496841F47061FF
:100540007C4A083A516070E07A493C31884208D1CF
:1005500078490839496841F47041764A083A51604F
:1005600063E074495031884208D1724908394968BA
:1005700041F470216F4A083A516056E06D49643188
:10058000884208D16B490839496841F47001694AC9
:10059000083A516049E067497831884208D1654995
:1005A0000839496841F07061624A083A51603CE09C
:1005B0006149884206D1011F096841F00F01021FFD
:1005C000116032E05C491431884208D15A49091F50
:1005D000096841F0F001584A121F116025E05649A0
:1005E0002831884208D15449091F096841F47061D3
:1005F000514A121F116018E04F493C31884208D11E
:100600004D49091F096841F470414B4A121F11609E
:100610000BE049495031884207D14749091F096811
:1006200041F47021444A121F1160704710B5002236
:10063000026847F6F0739A430C6A8B6823430C698F
:1006400023434C6923438C692343CC6923434C6A7D
:1006500023438C6A23431A430260CB6843600B68D0
:1006600083604B68C36010BD002101604160816000
:10067000C160016141618161C16101624162816268
:10068000704721B1026842F00102026004E0026892
:100690004FF6FE731A40026070471AB103680B43AD
:1006A000036002E003688B4303607047416070475A
:1006B0000146486880B2704701460020002201F0E0
:1006C00080531BB11C4B083B1A6802E0194B083BD6
:1006D0001A6802EA01030BB1012000E00020704714
:1006E00000F0805119B11449091F086002E0114956
:1006F00008394860704701460020002201F080530D
:100700001BB10D4B083B1A6802E00A4B083B1A6804
:1007100002EA01030BB1012000E00020704700F065
:10072000805119B10449091F086002E001490839E4
:100730004860704708000240080402400020444915
:100740000860091D0860091D0860091D086041480E
:100750003F4914310860704700213D498279002AE1
:100760003AD00A46126803689A430B461A600A1D7B
:10077000126803689A430B1D1A60027911440A68D3
:1007800003681A430A60324A0832126803689A43BF
:100790002F4B08331A601A1D126803689A432C4BBA
:1007A0000C331A604279102A0ED11A1F126803689E
:1007B0001A43274B08331A601A1D126803681A433C
:1007C000234B0C331A600DE02149427911440A6829
:1007D00003681A430A6005E0027911440A68036855
:1007E0009A430A6070470021016001710C21417138
:1007F0000021817170471649103109680143144A7C
:1008000010321160704701460020114A14321268FC
:100810000A400AB1012000E0002070470C49143161
:1008200008607047014600200022094B1B6803EA5C
:100830000102074B14331B680B4013B10AB10120AE
:1008400000E0002070470249143108607047000042
:1008500000040140FFFF0F0030B943F2DB028100CA
:10086000A1F1C0410A6005E043F2D2028100A1F18A
:10087000C0410A606FF07042411C8900A1F1C04183
:100880000A608100A1F1C041C1F80421704710281D
:100890000AD118214FF020421166402151664FF0D5
:1008A000FC319166D16610E01821F74A11604021B1
:1008B0004FF02042C2F884104FF0FC31F24A083267
:1008C00011604FF02042C2F88C1070471820EE499A
:1008D0002031086000200906C1F8A4004FF0FC3068
:1008E000E94928310860091D0860091D0860704742
:1008F000D0E901121143C2681143026911434269F0
:10090000114382691143C2691143026A1143426A69
:100910001143826A1143C26A1143026B1143026898
:100920009200A2F1C0421160816808290BD10168D0
:100930008900A1F1C041096841F0400201688900C5
:10094000A1F1C0410A60416B0968426B526841EAFB
:100950000211426B926841EA0221426B928941EA9C
:100960000241426B128A41EA0251426B127D41EA16
:100970000261426B926911430268521C9200A2F11B
:10098000C0421160C16AB1F5804F1BD1816B09680B
:10099000826B526841EA0211826B926841EA02213D
:1009A000826B128A41EA0251826B127D41EA026136
:1009B000826B9269114302689200A2F1C042C2F8B0
:1009C000041107E06FF0704201688900A1F1C04195
:1009D000C1F80421704730B500210022002344688B
:1009E00044F0080485682C43C5682C4305692C43F2
:1009F000456944EA4524856944EA4531C469246867
:100A0000C5696D6844EA0524C5692D8944EA054431
:100A1000C5692D7B44EA0562046A2468056A6D682D
:100A200044EA0524056A2D8944EA0544056A2D7BBC
:100A300044EA05630468102C05D14FF02044216678
:100A4000A266E36608E0904C21604FF02044C4F8B1
:100A500088208D4C0C34236030BD016841F01001BA
:100A6000426841EA4221826841EA4231864A2032A4
:100A70001160C1680968C268526841EA0221C2680F
:100A8000128941EA0241C268127B41EA02617E4A50
:100A900028321160016909680269526841EA02213D
:100AA0000269128941EA02410269127B41EA02614C
:100AB000754A2C321160416909684269526841EAFD
:100AC00002214269128941EA02414269127B41EAEC
:100AD00002614FF02042C2F8B0107047002101605F
:100AE0000221416000218160C16001614161816139
:100AF000C16101624FF4805141624900816200216D
:100B0000C16201630F21426B1160426B5160FF2192
:100B1000426B91600F21426BD160426B1161426B5D
:100B200051610021426B91610F21826B1160826BD8
:100B30005160FF21826B91600F21826BD160826BCB
:100B40001161826B51610021826B916170471021AC
:100B50000160002141608160C1600161416181618A
:100B6000FC21C2691160C2695160C2699160C269A9
:100B7000D160026A1160026A5160026A9160026A81
:100B8000D16070470021016041608160FC21C26832
:100B90001160C2685160C2689160C268D160026928
:100BA000116002695160026991600269D160426915
:100BB000116042695160426991604269D160704739
:100BC00051B18200A2F1C042126842F001038200DA
:100BD000A2F1C042136009E08200A2F1C042126893
:100BE0002A4B1A408300A3F1C0431A60704799B1A1
:100BF000102808D14FF02042126E42F004024FF04C
:100C000020431A661DE0204A126842F004024FF0A9
:100C10002043C3F8802014E0102809D14FF020426F
:100C2000126E1A4BDB1E1A404FF020431A6608E082
:100C3000154A1268154BDB1E1A404FF02043C3F8CB
:100C40008020704748B110492031096841F0040103
:100C50004FF02042C2F8A01009E00B49203109688A
:100C60000A4AD21E11404FF02042C2F8A01070472D
:100C7000B9B110280CD14FF02042126E42F0400260
:100C80004FF020431A661FE0800000A0FEFF0F0017
:100C9000724A126842F040024FF02043C3F88020AD
:100CA00012E0102808D14FF02042126E6C4B1A400F
:100CB0004FF020431A6607E0684A1268684B1A40F2
:100CC0004FF02043C3F880207047014600201029D0
:100CD00003D14FF02042506F02E0604A1432106896
:100CE000704710B5F2B1102807D14FF020435B6E6A
:100CF0000B434FF02044636632E0B0F5807F08D1AB
:100D0000564B1B1D1B680B434FF02044C4F8843026
:100D100026E0524B24331B680B434FF02044C4F8A9
:100D2000A4301DE0102807D14FF020435B6E8B43A9
:100D30004FF02044636613E0B0F5807F08D1474B45
:100D40001B1D1B688B434FF02044C4F8843007E020
:100D5000424B24331B688B434FF02044C4F8A4302B
:100D600010BD10B5024600200023102A03D14FF019
:100D70002044636E09E0B2F5807F03D1374C241D17
:100D8000236802E0354C2434236803EA01040CB1E3
:100D9000012000E0002010BD102807D14FF02042B4
:100DA000526E8A434FF020435A6613E0B0F5807FBD
:100DB00008D12A4A121D12688A434FF02043C3F813
:100DC000842007E0254A243212688A434FF02043EA
:100DD000C3F8A420704770B5024600200023002409
:100DE0000025102A03D14FF02046736E09E0B2F5BA
:100DF000807F03D1194E361D336802E0174E24362A
:100E0000336803EA010403EAD10514B10DB10120EE
:100E100000E0002070BD102808D14FF02042526E33
:100E200022EAD1024FF020435A6615E0B0F5807FE8
:100E300009D10A4A121D126822EAD1024FF020435A
:100E4000C3F8842008E0054A2432126822EAD1025D
:100E50004FF02043C3F8A42070470000800000A09A
:100E6000BFFF0F0010B50446CC48844208D10121D1
:100E7000042000F093FB0021042000F08FFB46E0EB
:100E8000C748844208D10121082000F087FB0021D7
:100E9000082000F083FB3AE0C248844208D10121D7
:100EA000102000F07BFB0021102000F077FB2EE0EB
:100EB000BD48844208D10121202000F06FFB0021B1
:100EC000202000F06BFB22E0B848844208D10121C9
:100ED000402000F063FB0021402000F05FFB16E0A3
:100EE000B348844208D10121802000F057FB002143
:100EF000802000F053FB0AE0AE48844207D1012174
:100F0000801500F04BFB0021A01500F047FB10BD41
:100F100010B50121084600F041FB0021012000F03E
:100F20003DFB10BD2DE9F0410246002500260020C2
:100F300000230024002791F803C00CF00F0591F85E
:100F400003C00CF0100CBCF1000F03D091F802C0EC
:100F50004CEA050591F800C0BCF1000F31D01468CF
:100F600000202BE04FF0010C0CFA00F3B1F800C0A8
:100F70000CEA03069E4220D183004FF00F0C0CFABE
:100F800003F7BC4305FA03FC4CEA040491F803C0E0
:100F9000BCF1280F06D14FF0010C0CFA00FCC2F88E
:100FA00014C00AE091F803C0BCF1480F05D14FF01E
:100FB000010C0CFA00FCC2F810C0401C0828D1D368
:100FC0001460B1F800C0BCF1FF0F34DD546800209C
:100FD0002EE000F1080C4FF0010808FA0CF3B1F80C
:100FE00000C00CEA03069E4221D183004FF00F0C93
:100FF0000CFA03F7BC4305FA03FC4CEA040491F82D
:1010000003C0BCF1280F05D100F1080C08FA0CF858
:10101000C2F8148091F803C0BCF1480F07D100F169
:10102000080C4FF0010808FA0CF8C2F81080401CB8
:101030000828CED35460BDE8F0814FF6FF710180DF
:10104000022181700421C17070470246002093681C
:101050000B400BB1012000E000207047014688687A
:1010600080B2704702460020D3680B400BB10120CC
:1010700000E0002070470146C86880B270470161F7
:101080007047416170470AB1016100E041617047FA
:10109000C16070474FF480320A438261816182618E
:1010A00082698269704702460020434B18684FF6F8
:1010B0008073184040EA021008433F4B18607047A5
:1010C0003E49C8617047F0B50A460023002400215C
:1010D000002500F00046B6F1004F02D1364EF1690E
:1010E00001E0354E7168C0F3034583B200F4401649
:1010F000B6F5401F08D121F070612F4E766826F0BA
:1011000070662D4F7E6012E000F48016B6F5801FE9
:1011100006D1032606FA05F4A14341F0706106E00A
:10112000460D360103FA06F6B14341F0706122B173
:10113000460D360103FA06F6314300F00046B6F1DB
:10114000004F02D11C4EF16101E01B4E7160F0BDF9
:1011500030B500228B071C0F0F2303FA04F2164B45
:1011600008338C1053F824309343134C08348D10FB
:1011700044F8253023468C1053F824308C07240F74
:1011800000FA04F423430C4C08348D1044F8253045
:1011900030BD0A49DC31086070470000000801409A
:1011A000000C0140001001400014014000180140F3
:1011B000001C0140002001400000014000002042CE
:1011C00010B50121080700F0F6F900214FF080501A
:1011D00000F0F1F910BD2A490862704728490861FA
:1011E000704701460020274A106820F0E0000843BD
:1011F000106070472249A0310860704710B5024660
:101200000020204B186820F00300104318601E4B8C
:101210001B6843F004031C4C2360012901D130BF3B
:1012200000E020BF184B1B6823F00403164C23601A
:1012300010BD1448006840F00400124908600846D8
:10124000006840F0020008600F48006840F00400A9
:101250000D49086000BF00BF30BF70470146002045
:10126000084A52680A400AB1012000E00020704795
:101270000449096841EA8001024A11607047000090
:1012800000000E420070004010ED00E0DF480068F2
:1012900040F00100DD49086008464068DC4908402C
:1012A000DA49486008460068DA490840D7490860CA
:1012B0000846006820F4802008600846406820F452
:1012C000FE0048604FF41F0088607047CF490968EE
:1012D00021F48031CD4A11601146096821F4802142
:1012E0001160B0F5803F03D0B0F5802F0ED106E03D
:1012F000C649096841F48031C44A116007E0C34916
:10130000096841F4A021C14A116000E000BF00BF9C
:10131000704710B501460022002300204A11012A1F
:1013200002D1BA4C236806E0022A02D1B74C236AE4
:1013300001E0B64C636A01F01F02012494401C4096
:101340000CB1012000E0002010BD38B50020009055
:101350000024002500BF3120FFF7DBFF0546009881
:10136000401C00900098B0F5A06F01D0002DF2D085
:101370003120FFF7CEFF08B1012400E00024204611
:1013800038BD01460020A14A106820F0F80040EA6C
:10139000C10010607047A0490860704702460020F5
:1013A0009A4B586820F47C1042EA01031843974B8B
:1013B0005860704798490866704701460020934A74
:1013C000506820F003000843506070478F48406821
:1013D00000F00C007047014600208C4A506820F055
:1013E000F00008435060704701460020874A50686B
:1013F00020F4E06008435060704701460020834AB3
:10140000506820F4605040EAC1005060704729B134
:101410007E4A527A02437D4B5A7204E07B4A527AEA
:1014200082437A4B5A7270477B49D83108607047C3
:1014300001460020754A506820F44040084350603F
:1014400070470021714A20321170704A82F82010D2
:10145000012802D004280AD104E001216B4A20327D
:10146000117005E00521694A2032117000E000BFCB
:1014700000BF70476949086070476449096A0143C1
:10148000624A11627047654944390860704730B557
:1014900000210022002400235C4D6D6805F00C0142
:1014A00021B1042905D0082923D105E05C4D056050
:1014B00022E05B4D05601FE0544D6D6805F470122D
:1014C000524D6D6805F48034022505EB92421CB93B
:1014D000544D554305600BE04C4D6D6805F40035E7
:1014E0001DB1504D5543056002E04D4D554305601B
:1014F00002E04B4D056000BF00BF444D6D6805F034
:10150000F0010909484D6B5C0568DD4045603F4DC1
:101510006D6805F4E061090A434D6B5C4568DD4088
:1015200085603A4D6D6805F46051C90A3E4D6B5CAB
:101530004568DD40C560354D6D6805F44041890B57
:101540003A4D6B5CC568B5FBF3F5056130BD29B15B
:101550002E4A526902432D4B5A6104E02B4A5269CC
:1015600082432A4B5A61704729B1284A9269024343
:10157000264B9A6104E0254A92698243234B9A6183
:10158000704729B1214AD2690243204BDA6104E055
:101590001E4AD26982431D4BDA61704729B11B4A4A
:1015A000D2680243194BDA6004E0184AD2688243D9
:1015B000164BDA60704729B1144A12690243134B83
:1015C0001A6104E0114A12698243104B1A61704794
:1015D00012494039086070470F49C86470470B4989
:1015E000C87170470948406A40F0807007494862F6
:1015F000704701460020054A92680A400AB101205E
:1016000000E00020704701498872704700100240D6
:101610000000FFF8FFFFF6FE000042428004424255
:1016200000127A0000093D00140000202400002070
:1016300029B1504A128802434E4B1A8004E04D4AA9
:10164000128882434B4B1A8070474A48001D00881D
:1016500040F010004749091D088070474548001DAB
:1016600000884FF6EF7108404249091D0880704715
:10167000002140481C300188001F008841EA0040DA
:10168000704700B50246FFF7E0FF100C39491831EA
:101690000880091D0A80FFF7E1FF00BD00B5024682
:1016A000FFF7D3FFC2F30340324908310880091D18
:1016B0000A80FFF7D3FF00BD00B50246FFF7C5FF64
:1016C000100C2C4920310880091D0A80FFF7C6FF45
:1016D00000BD00202749103109880907080B25495A
:1016E000143109880843704700BF2248001D008854
:1016F00000F020000028F8D070471E48001D008828
:101700004FF6F77108401B49091D088000BF1948B2
:10171000001D008800F008000028F8D0704701463E
:101720000020144A121D12880A400AB1012000E06C
:10173000002070470F49091D098881430D4A121D79
:1017400011807047014600200A4A121D12880A4083
:10175000D0B2084A12880A4012B108B1012000E054
:10176000002070470349091D09888143014A121D61
:10177000118070470028004000206F4908604860D1
:101780008860C86048628862C8626C4888630020CC
:10179000C86370470021684A516847F6FF62914369
:1017A000027D83681A4343681A43C3681A43036877
:1017B0001A4303691A4311435F4A5160704700217D
:1017C0000175016041608160C160016170475C49E1
:1017D000086070475849096821F00301564A1160B2
:1017E000114609680143116070475348006800F0D2
:1017F0000300704729B1504AD26B02434E4BDA6363
:1018000004E04D4AD26B82434B4BDA6370474D493B
:10181000086070470021484B02689A601A46D168F8
:101820006FF30A01D0E901231A43C3681A4303691D
:101830001A431143404AD160704700210160416062
:101840008160C160016170473B480069C0B2704768
:1018500008B5014600200090374814300844009035
:101860000098006808BD0021334B02685A62426844
:101870009A621A46D16A21F0F701D0E902231A438D
:1018800003691A4343691A4311432B4AD1627047D3
:101890004FF0FF310160002141608160C160016152
:1018A000416170472448006B7047234880300068CE
:1018B000704721498031086070471F48806C70472D
:1018C00020491431086070471E491831086070477C
:1018D0001C491C31086070471A4920310860704764
:1018E0001949086070471849091D086070470121AF
:1018F0008143154A08321160704713490C31086062
:101900007047014600200C4A526B0A400AB1012080
:1019100000E00020704708498863704701460020B6
:10192000054A526B0A400AB1012000E000207047CE
:10193000014988637047000000800140FF07C00034
:10194000A00030428C053042AC01304210B5044654
:10195000BE48844208D101218014FFF71FFE0021F8
:10196000A014FFF71BFE16E0B948844208D10121FC
:101970000014FFF720FE00212014FFF71CFE0AE0F0
:10198000B448844207D10121C013FFF714FE00219F
:10199000E013FFF710FE10BD10B50022028802F41C
:1019A00041520B884C8823438C882343CC882343A3
:1019B0000C8923434C8923438C892343CC892343BB
:1019C0001A430280838B4FF2FF74234083830B8A78
:1019D000038210BD2DE9F04F85B005460C464FF04F
:1019E000000902274FF000084FF0010B0026B24615
:1019F000A88B4FF240010840A88302202884B5F844
:101A00001C90A068022801D100BF38E0A08810B95E
:101A10004FF0010B01E04FF0020B8D48854200D1E1
:101A200000E000BF6846FFF732FDDDF800A0E08867
:101A3000B0F5007F0AD14FEA1A2000EB8000400089
:101A4000A168B0FBF1F0401D86B20BE04FEA4B10ED
:101A5000BAFBF0F000EB80004000A168B0FBF1F0B1
:101A6000401D86B20A20B6FBF0F606F00108A6EB90
:101A70000800C0F34F074FF6FF7000EA0828022F56
:101A800001DBFF2F02DD02274FF00008E08840EA6B
:101A9000080038432884A088A18908436188084346
:101AA0002188084340F4006040EA0909A5F81C9029
:101AB00005B0BDE8F08F0021018041808180C180A8
:101AC000018141818181C18107210182704700210B
:101AD000018041808180C18002218160002181815B
:101AE000704721B1028842F04002028004E002887F
:101AF0004FF6BF731A400280704721B1828B42F4C7
:101B00008062828304E0828B4FF6FF331A40828327
:101B1000704730B5002400230C110125A540ABB25D
:101B20001AB185881D43858002E085889D438580A4
:101B300030BD1AB183880B43838002E083888B43D6
:101B400083807047818170470146888970474FF6CE
:101B5000FF62914204D0028842F48072028004E065
:101B600002884FF6FF631A400280704721B18288D5
:101B700042F00402828004E082884FF6FB731A4030
:101B80008280704702884FF2FF731A4002800288F9
:101B90000A4302807047018841F4805101807047F8
:101BA00021B1028842F40052028004E002884DF61E
:101BB000FF731A400280704702460020012901D0BD
:101BC000108B00E0908A70470146088A7047B1F593
:101BD000804F04D1028842F48042028004E00288EF
:101BE0004BF6FF731A4002807047024600201389AB
:101BF0000B400BB1012000E000207047CA43028176
:101C00007047F0B50246002000240023002501F0B3
:101C10000F070126BE40B4B20B1101269E40B3B29D
:101C2000968806EA03051689264016B10DB10120F3
:101C300000E00020F0BD10B5002201F00F040123E8
:101C4000A3409AB2D343038110BD0000003001408D
:101C500000380040003C004010B50446FB48844278
:101C600009D101218803FFF799FC00214FF480403E
:101C7000FFF794FC32E0F648844209D10121480480
:101C8000FFF799FC00214FF40030FFF794FC25E0AA
:101C9000F048844209D101218804FFF78CFC00211F
:101CA0004FF48020FFF787FC18E0EB48844209D10D
:101CB0000121C804FFF77FFC00214FF40020FFF74B
:101CC0007AFC0BE0E548844208D101210805FFF7C2
:101CD00072FC00214FF48010FFF76DFC10BD2DE960
:101CE000F04786B005460E460024A24600BFA14636
:101CF0000027B08900B100BF2F462C8A4CF6FF7038
:101D00000440F08804432C82AC894EF6F310044062
:101D1000B08831890843718908430443AC81AC8A97
:101D20004FF6FF400440B0890443AC8201A8FFF79E
:101D3000AEFBC648874202D1DDF810A001E0DDF815
:101D40000CA0A88900F4004040B10AEBCA0000EBE7
:101D50000A1031684900B0FBF1F807E00AEBCA004D
:101D600000EB0A1031688900B0FBF1F86420B8FB81
:101D7000F0F004012009642101FB1089A88900F416
:101D8000004040B1322000EBC900B0FBF1F000F0A0
:101D90000700044308E0322000EB09106421B0FB87
:101DA000F1F000F00F0004432C8106B0BDE8F0878D
:101DB0004FF41651016000218180C18001810C2106
:101DC000418100218181704710B502460020108AB0
:101DD0004FF2FF0318400B884C8823438C88234321
:101DE000CC8823431843108210BD0021018041801C
:101DF0008180C180704721B1828942F40052828182
:101E000004E082894DF6FF731A4082817047F0B575
:101E10000346002400260025002040F66A17B94238
:101E200000D100BF1846C1F3421401F01F0601277C
:101E300007FA06F5012C01D10C3004E0022C01D187
:101E4000103000E014301AB107682F43076002E039
:101E50000768AF430760F0BD1AB1838A0B438382E2
:101E600002E0838A8B4383827047028A4FF6F073C5
:101E70001A400282028A0A430282704782894FF224
:101E8000FF731A40828182890A438281704721B19F
:101E9000828942F00202828104E082894FF6FD735A
:101EA0001A4082817047028A4FF6DF731A4002821D
:101EB000028A0A430282704721B1028A42F48042B8
:101EC000028204E0028A4BF6FF731A4002827047D6
:101ED000C1F308028280704701468888C0F3080079
:101EE0007047818941F0010181817047028BD2B234
:101EF0000283028B42EA012202837047028B02F4C2
:101F00007F420283028B0A430283704721B1828A97
:101F100042F02002828204E0828A4FF6DF731A4088
:101F20008282704721B1828A42F01002828204E0EC
:101F3000828A4FF6EF731A408282704721B1828AFB
:101F400042F00802828204E0828A4FF6F7731A4058
:101F50008282704721B1828942F40042828103E08B
:101F60008289C2F30E028281704721B1828A42F4D3
:101F70000062828204E0828A4FF2FF731A408282FA
:101F80007047828A4FF6FB731A408282828A0A4324
:101F90008282704721B1828A42F00202828204E08A
:101FA000828A4FF6FD731A408282704702460020F3
:101FB000B1F5007F00D100BF13880B400BB10120A9
:101FC00000E00020704701F40072B2F5007F00D1FC
:101FD00000BFCA430280704770B502460024002348
:101FE0000025002040F66A16B14200D100BFC1F3BF
:101FF000421501F01F03012606FA03F3012D02D159
:102000009689334006E0022D02D1168A334001E062
:10201000968A33400C12012606FA04F416883440DE
:1020200013B10CB1012000E0002070BD10B50022FA
:10203000002340F66A14A14200D100BF0A12012415
:102040009440A3B2DC43048010BD0000003801407E
:102050000044004000480040004C00400050004058
:10206000704719480068704770B5044602F0AEFB2F
:10207000054615480460284602F0ACFB70BD10B55B
:1020800011480068401C1049086001F0DFFF044659
:10209000A06C401EA064A06C18B9606CA06402F033
:1020A00075F802F0B3FA10BD0146002902DA4FF0CC
:1020B000FF3008E04FF47A724A4302F2E7324FF4FD
:1020C0007A7392FBF3F070472800002000207047DD
:1020D00000207047002070470020704710B5234C47
:1020E00002E020688047241D21488442F9D310BDB6
:1020F00010B51F4C02E020688047241D1D48844213
:10210000F9D310BD10B50446FFF7F2FF03F06CF8E9
:1021100010BD1CB5142002210B020022CDE90010D5
:10212000AFF21F0114A001F0EBFF0446204601F0BE
:10213000AEFF1CBD10B502F049FB03F077FB01F0C8
:102140008EF802F0FEFA01F0F1FDFFF7E2FF02F077
:1021500004FB00F059F801F003FE002010BD10B59B
:1021600002F034FBFFF7E6FF002010BDE4E90308AE
:10217000E8E90308ECE903086D61696E00000000FE
:1021800070B537E002F022FB054600F052F818B3B4
:102190002C480068A0F1140404F11400D0E90021D7
:1021A0005160D0E9001211604060006000BF01F092
:1021B0006EFEA06F10B12046A16F8847204601F047
:1021C0007EFD012805D101F070FE284602F002FBD9
:1021D00070BD01F06AFE03E0284602F0FBFAF7E763
:1021E000284602F0F7FAA06A01F04AFA204601F008
:1021F00056FD00BF00F01DF80028C3D100BFE7E77F
:1022000001E0FFF7BDFFFCE71FB520200721C2005A
:102210000D4BCDE90032CDE9021000230B4A0CA191
:102220000D4801F0F9FE0C4801F031FF1FBD0A48CE
:10223000704704490868884201D001207047002097
:10224000FCE70000BC00002008020020012200087A
:102250007469646C650000008801002042681160A8
:1022600042684A604160086070472DE9F0410546C8
:102270000C469046204601F0B7FFB8F1000F03D09E
:10228000B8F1010F23D105E004F114012846FFF74E
:10229000E5FF1CE02E680FE0A6F1140794F8350066
:1022A00097F83510884206DA04F1140107F114009A
:1022B000FFF7D4FF02E03668AE42EDD100BFAE4278
:1022C00004D104F114012846FFF7C8FF00BF00BF86
:1022D0000020BDE8F08170B505460EE002F076FA08
:1022E00006462868A0F114044FF0FF302063204612
:1022F00001F0AFFE304602F06DFA284600F092FB86
:102300000028EBD0002070BD2DE9F04104460D46B9
:1023100016461F462A460121204601F070FC204641
:1023200000F088FBA68367720020BDE8F08110B53D
:10233000044604F11400FFF7CEFF204601F07DFCB7
:10234000002010BD2DE9F04105460E4617462946EE
:10235000012001F07FFC044614B92046BDE8F0815D
:10236000204600F067FBA68367722046F6E710B5AB
:10237000044604F11400FFF7AEFF204601F08FFC85
:10238000002010BD73B5054602F020FA0646A88B62
:10239000002806DDA88B401EA883304602F01AFAFA
:1023A00028E0019828B9304602F014FA6FF00100D5
:1023B0007CBD01F04BFE0446002020636A7A214672
:1023C00005F11400FFF751FF0198002809DD01AA6B
:1023D000002104F14C0002F0FDF804F14C0002F081
:1023E00054F8304602F0F6F901F0CCFC206B08B14D
:1023F000206BDDE70020DBE710B504460021204616
:10240000FFF7C0FF10BD70B50446002502F0DEF9ED
:10241000064604F1140000F005FB28B904F114008D
:1024200000F010FB012502E0A08B401CA083304689
:1024300002F0D0F9012D01D101F0A4FC002070BD03
:102440002DE9F04104460E461546012E10D12F46C7
:1024500002F0BCF9804604F11400FFF73CFFA783AB
:10246000404602F0B7F901F08DFC0020BDE8F08194
:102470004FF0FF30FAE770B504460D4616462A467F
:102480000321204601F0BBFB6672204600F0D2FA21
:102490000020E06170BD10B5044604F11400FFF7A0
:1024A0001AFF204601F0C9FB002010BD70B505469B
:1024B0000E462946032001F0CDFB04460CB9204608
:1024C00070BD6672204600F0B5FA0020E06120463B
:1024D000F6E710B5044604F11400FFF7FCFE2046B1
:1024E00001F0DDFB002010BD2DE9F04704460F464A
:1024F0001FB94FF0FF30BDE8F0874FF0000802F041
:1025000065F98246E0693843E06104F1140000F0A7
:1025100089FA002838D1666932E0A6F114054FF037
:10252000FF3995F8400000F0010040B1E86BE16927
:102530000840E96B884211D14FF000090EE095F890
:10254000400000F0020048B1E86BE169084028B1A2
:10255000E86BE1690840E8634FF000093668B9F1BB
:10256000000F0DD195F8400000F0040018B1E069AB
:10257000E96B8843E061284601F06BFD4FF00108EC
:1025800004F114008642C8D1504602F023F9B8F194
:10259000010F01D101F0F6FB0020ACE72DE9FF4768
:1025A00005460E461746DDF8308026B94FF0FF305D
:1025B00004B0BDE8F0874FF0FF3901F047FD044655
:1025C0000020206302F002F9824607F0010030B1DA
:1025D000E8693040B0420AD14FF0000907E007F047
:1025E000020020B1E869304008B14FF00009B9F1AC
:1025F000000F0DD1B8F1000F03D0E8693040C8F8E2
:10260000000007F0040088B3E869B043E8612DE0FA
:10261000039818B96FF00100206327E0E66384F89F
:1026200040706A7A214605F11400FFF71EFE0398F8
:10263000002809DD03AA002104F14C0001F0CAFFC3
:1026400004F14C0001F021FF504602F0C3F801F004
:1026500099FB206B08B1206BAAE702F0B7F882461D
:10266000B8F1000F02D0E06BC8F80000504602F04D
:10267000B1F8206B9CE72DE9F04104460D46174662
:10268000012D10D102F0A2F8064604F11400FFF764
:1026900022FE0020E061304602F09CF801F072FB5F
:1026A0000020BDE8F0814FF0FF30FAE72DE9F05F40
:1026B00004460F4690469946DDE90AAB3A460521A5
:1026C000204601F09CFA84F809B0204600F0B2F9E7
:1026D000C4F81C8009F1030020F003002084208C42
:1026E000001DBAFBF0F060840020A062E06220636D
:1026F000002608E0208C001DE16906FB0015206B18
:1027000028602563761C608CB042F3DC0020A08436
:10271000BDE8F09F10B5044604F11400FFF7DBFD9F
:10272000204601F08AFA002010BD10B5044604F1DD
:102730001400FFF7D0FDE06900F0A2FF204601F091
:10274000AEFA002010BD2DE9F047074688469146B5
:102750009A463946052001F07DFA044614B9204610
:10276000BDE8F08784F809A0204600F063F908F17D
:10277000030020F003002084A4F82290218C091D7E
:10278000628C01FB02F000F0D3FEE061E06920B949
:102790002046FFF7CAFF0020E2E70020A062E062C7
:1027A0002063002508E0208C001DE16905FB001670
:1027B000206B306026636D1C608CA842F3DC002027
:1027C000A0842046CCE72DE9F04104460F4616468A
:1027D000208CB04203D24FF0FF30BDE8F08101F011
:1027E000F5FF8046256B2DB9404601F0F3FF6FF0F1
:1027F0000200F2E728682063404601F0EBFF00206A
:10280000286032463946281D00F09BF901F0DEFFB2
:102810008046E06A08B1E06A0560E562A06A00B936
:10282000A562A08C401CA08404F1140000F0FAF80A
:1028300050B904F1140000F005F9404601F0CAFF58
:1028400001F0A0FA0020C8E7404601F0C3FF0020D5
:10285000C3E72DE9F04104460F461646208CB042EE
:1028600003D24FF0FF30BDE8F08101F0AFFF8046AA
:10287000256B2DB9404601F0ADFF6FF00200F2E785
:1028800028682063404601F0A5FF32463946281DDE
:1028900000F057F901F09AFF8046A06A2860A5620F
:1028A000E06A00B9E562A08C401CA08404F1140029
:1028B00000F0B8F850B904F1140000F0C3F8404635
:1028C00001F088FF01F05EFA0020CCE7404601F0FD
:1028D00081FF0020C7E72DE9FF4704460F469046D9
:1028E0004FF0000901F0B2FB054601F06FFF824690
:1028F000A08C48B9039838B9504601F06BFF6FF0CF
:10290000010004B0BDE8F0873CE000202863039894
:1029100030B9504601F05EFF6FF001002863F0E728
:10292000627A294604F11400FFF79FFC03980028FF
:102930000CDDFFF796FB814603AA002105F14C0050
:1029400001F048FE05F14C0001F09FFD504601F0FA
:1029500041FF01F017FA286B08B1286BD1E701F0AD
:1029600035FF8246039800280CDDFFF77AFBA0EBC9
:1029700009090398A0EB090003900398002801DAE5
:1029800000200390A08C0028BFD0A66A3068A06207
:10299000E06AB04201D10020E062A08C401EA08419
:1029A000504601F017FF208C404501D2208C00E0FA
:1029B00040460246311D384600F0C3F801F006FFDC
:1029C0008246206B30602663504601F003FF0020F2
:1029D00097E72DE9F04104460E469046012E1ED1A0
:1029E00001F0F4FE074604F11400FFF774FC0AE05E
:1029F000A56A2868A062E06AA84201D10020E062CE
:102A0000206B28602563A06A0028F1D1A084384695
:102A100001F0E0FE01F0B6F90020BDE8F0814FF0D2
:102A2000FF30FAE701460868884201D1012070476B
:102A30000020FCE7014601F114004060006000BF87
:102A40000020704770B504462068A0F114052846A0
:102A500001F0FFFA002070BD10B501F0B7FE04468A
:102A60000C480078401C0B490870204601F0B2FE6B
:102A700010BD10B501F0AAFE044606480078401EBD
:102A800004490870204601F0A5FE10BD01480078F9
:102A9000704700002C00002010B5FFF7F7FF10B1C1
:102AA000FA48006810BD01F0D1FA044614B9F7489D
:102AB0000068F7E7206BF5E770B50446FFF7E6FF1F
:102AC00010B1F248046070BD01F0C0FA054615B9B6
:102AD000EE480460F7E72C6300BFF4E710B5FFF79A
:102AE000D5FF08B1E94810BD01F0B0FA044614B1B1
:102AF00004F13000F7E7E548F5E7F0B50C46054688
:102B0000E6B2042A15D300F0030797B9014646EA56
:102B1000062343EA034304E008C108C108C108C111
:102B2000103A102AF8D201E008C1121F042AFBD281
:102B30000D4601E005F8016B171EA2F10102F9D163
:102B4000F0BD2DE9F0410F46164604463D4633469A
:102B5000102B28D305F0030C04F003084CEA080CF2
:102B6000BCF1000F1FD121462A4610E052F804CBD9
:102B700041F804CB52F804CB41F804CB52F804CB13
:102B800041F804CB52F804CB41F804CB103B102B96
:102B9000ECD204E052F804CB41F804CB1B1F042B09
:102BA000F8D20C46154603E015F801CB04F801CB2A
:102BB000B3F1000CA3F10103F6D1BDE8F08170B5CB
:102BC0000C46014623468B4210D29D188D420DD9EA
:102BD0001144134405E05D1E2B462E784D1E2946F8
:102BE0002E70151EA2F10102F5D108E003E013F8E2
:102BF000015B01F8015B151EA2F10102F7D170BD66
:102C0000F0B5034600201C460D4608E026782F78D4
:102C1000F61B301E00D004E0641C6D1C521E002AFE
:102C2000F4D800BFF0BD01460A4600E0521C1078FF
:102C30000028FBD1501A7047F0B506460F463846BB
:102C4000FFF7F1FF05460DB93046F0BD3046FFF7FE
:102C5000EAFF044609E0641E2A4639463046FFF77B
:102C6000CFFF08B93046F0E7761CAC42F3DA00201B
:102C7000EBE730B503460C4600BF13F8011B14F810
:102C8000012B412902DB5A2900DC2031412A02DBD9
:102C90005A2A00DC2032914201D10029EDD1881A54
:102CA00030BD70B50346A2B118460C4600BF14F8FB
:102CB000016B00F8016B3EB902E0002500F8015BF2
:102CC000551E2A1EF9D102E0551E2A1EEFD100BF63
:102CD00000BF184670BD30B5034600200BE011F868
:102CE000015B1C78641B64B2201E02D113F8015BE7
:102CF00005B902E0521E002AF1D100BF30BD0246E4
:102D000001E0521C491C107818B110780B789842D9
:102D1000F7D010780B78C01A704702460B46114660
:102D200000E0491C087810B1881A9842F9D3881A33
:102D3000704770B504462046FFF775FF451C2846CE
:102D400000F0F6FB06460EB9002070BD2A4621466B
:102D50003046FFF7F6FE3046F7E770472DE9F04FB3
:102D600085B00D469C46DDE90F740E9B04F04008CB
:102D7000B8F1000F02D0DFF8188101E0DFF814810C
:102D8000CDF8008004F01008B8F1000F01D024F055
:102D9000010404F00108B8F1000F02D04FF0300830
:102DA00001E04FF02008C246002604F00208B8F106
:102DB000000F11D0002A02DA2D2652420CE004F056
:102DC0000408B8F1000F01D02B2605E004F0080834
:102DD000B8F1000F00D02026002142B94FF0300B8F
:102DE0008846491C0DF1040909F808B01DE01AE0F5
:102DF000E146B9F10A0F08D14FF00A0BB2FBFBFE16
:102E00000BFB1E28B2FBFBF202E002F00F081209D6
:102E100000BFDDF8009019F808B08846491C0DF194
:102E2000040909F808B0002AE2D1B94200DD0F46D2
:102E3000DB1B04F01108B8F1000F10D116B1002B04
:102E400000DD5B1E06E0A84203D84FF0200880F8A2
:102E50000080401CB3F10008A3F10103F3DC26B1AC
:102E6000A84201D806705B1E401C04F01008B8F19F
:102E7000000F0AD104E0A84201D880F800A0401C4D
:102E8000B3F10008A3F10103F5DC0CE030000020F1
:102E9000DD240108CC240108A84203D84FF03008F3
:102EA00080F80080401CB8467F1E8845F4DC08E0AE
:102EB000A84205D80DF1040818F8018080F80080B8
:102EC000401CB1F10008A1F10101F1DC06E0A842CB
:102ED00003D84FF0200880F80080401CB3F10008B0
:102EE000A3F10103F3DC05B0BDE8F08F014600203B
:102EF00009E00B685A1C0A601A7800EB800302EBA9
:102F00004302A2F130000A681278303A0A2AF0D35C
:102F100070472DE9FF4F89B0804644460A984044E7
:102F2000461E464504D24FF0FF36A6EB08000A9035
:102F30006FE10B980078252806D0B44202D80B9890
:102F400000782070641C61E1002526E00B98401C8D
:102F50000B900B9800782D2802D145F010051CE04D
:102F60000B9800782B2802D145F0040515E00B984A
:102F70000078202802D145F008050EE00B98007873
:102F8000232802D145F0200507E00B98007830286F
:102F900002D145F0010500E000E0D7E700BF4FF0A7
:102FA000FF370B98007830380A2804D20BA8FFF7B7
:102FB0009DFF07460EE00B9800782A280AD10B984F
:102FC000401C0B900C9880C80C90002F02DA7F42B6
:102FD00045F010054FF0FF390B9800782E281CD1D2
:102FE0000B98401C0B900B98007830380A2804D2BC
:102FF0000BA8FFF77BFF81460AE00B9800782A2890
:1030000006D10B98401C0B900C9850F8049B0C9028
:10301000B9F1000F01DA4FF00009002004900B987D
:103020000078682803D00B9800786C2805D10B989D
:10303000007804900B98401C0B900A2005900B9888
:1030400000786F2875D00CDC632813D004DC2528A9
:1030500070D058286FD18DE064286DD06928F9D1DF
:103060008FE070286AD0732825D0752878D078280A
:10307000F0D182E005F0100040B904E0B44201D87C
:1030800020202070641C781E071EF7DC0C9810F8B6
:10309000041B0C90C8B20790B44201D80798207066
:1030A000641C04E0B44201D820202070641C781E07
:1030B000071EF7DCAAE00C98006806900C98001D2B
:1030C0000C90069808B9B1A006900698FFF7ABFDE2
:1030D0008346B9F1000F02DDCB4500DDCB4605F09C
:1030E000100048B904E0B44201D820202070641CCC
:1030F00038467F1E5845F6DC002008900BE0B442AD
:1031000002D8069800782070641C0698401C06902F
:103110000898401C089008985845F0DB04E0B44239
:1031200001D820202070641C38467F1E5845F6DCEC
:103130006CE01CE015E028E022E0FFE7781C10B905
:10314000082745F00105CDE9007902950C9804C8DF
:10315000102331460C902046FFF700FE044655E050
:1031600012E0B44201D825202070641C4EE00820F3
:1031700005901DE045F0400500BF1020059017E0C8
:1031800000BF45F0020500BF12E0B44201D825207F
:103190002070641C0B98007830B1B44202D80B98B0
:1031A00000782070641C02E00B98401E0B902DE00C
:1031B00000BF04986C2807D10C9850F804AB0C9011
:1031C00005F00200B8B116E0049868280BD10C98FD
:1031D00030F8041B1FFA81FA0C9005F0020050B180
:1031E0000FFA8AFA07E00C9850F804AB0C9005F03F
:1031F000020000B100BFCDE9007902955246314688
:103200002046059BFFF7AAFD044600BF0B98401C13
:103210000B900B98007800287FF48BAEB44201D855
:10322000207001E000203070A4EB08000DB0BDE874
:10323000F08F0FB438B505A800907F215548009B4A
:10324000049AFFF766FE04467F2C00D97F2451487C
:1032500002F045FB0020009038BC5DF814FB08B577
:103260004DA0FFF7E6FF4FA0FFF7E3FF56A00323B3
:1032700000221946009057A0FFF7DBFF5DA0FFF783
:10328000D8FF08BD0FB4F8B504460D4609A8009054
:1032900029462046009B089AFFF73BFE0646002081
:1032A00000903046F8BC5DF814FB37B505460C4677
:1032B00022464FF0FF312846029BFFF72AFE3EBD13
:1032C0000FB438B5044606A800902046009A059928
:1032D000FFF7EBFF054600200090284638BC5DF85C
:1032E00014FB10B5044604B910BD204602F0F7FAED
:1032F00000BFF9E72DE9F04107460C46E01C20F03D
:103300000304F81C20F0030000EB0408404600F022
:103310000FF9054665B1601E284008B92E1904E072
:10332000601E2844611E20EA010646F8045C35460A
:103330002846BDE8F08170B5044654F8045C284680
:1033400000F09EF970BD014609B900207047C8B26F
:1033500020B1C8B2324A105C401CF7E701F47F404C
:1033600028B12F48C1F30722805C0930EEE701F451
:103370007F0028B12A48C1F30742805C1130E5E79D
:10338000274800EB116000781930DFE7284E554CD4
:103390004C290000080300200A205C207C202F0A12
:1033A000000000002D205254202D202020202054E9
:1033B0006872656164204F7065726174696E672020
:1033C00053797374656D0A004A616E20203620328D
:1033D00030323200202F207C205C2020202020252D
:1033E000642E25642E2564206275696C6420257323
:1033F0000A0000002032303036202D2032303138A3
:1034000020436F70797269676874206279207274E2
:103410002D746872656164207465616D0A00000036
:10342000CC23010830B5FB4C436824681919884245
:1034300015D04B889BB9F84B1B6899420FD0F74BBE
:103440001B688B4201D1F54B18604B684360F14B10
:103450001B68C31AEF4D4C682D682C44A360ED4CDB
:10346000836824681A19824211D053887BB9EB4BC8
:103470001B68834201D1E94B1A6043685360E54BF6
:103480001B68D31AE34D44682D682C44A36030BDFB
:103490002DE9F04105460E46E81C20F0030726F012
:1034A0000308B8F1180F09D9A8F11800B84205D3DC
:1034B000A8EB07001838DA49086006E032462946CA
:1034C000D8A0FFF7B6FEBDE8F081D24807600468D7
:1034D0004FF4F5502080D24800680C306060002026
:1034E000A0606080CB49606809680844CA490860E8
:1034F0004FF4F550096808800120C74909684880E1
:10350000C74800680C30C44909684860C44800686E
:103510000C30C1490968886000230122D0A1D2483B
:10352000FEF7F2FEBB480068BC49086000BFCAE76E
:103530002DE9F041054615B90020BDE8F081E81CF1
:1035400020F00305B6480068854201D90020F4E761
:103550000C2D00D20C254FF0FF31C348FEF712FFAF
:10356000AE480068AB490968461A7EE0A948006881
:1035700084196088002874D106F10C006168081A6B
:10358000A8426ED306F10C006168091A05F1180013
:10359000814230D306F10C0000EB05089D4800681D
:1035A00000EB08074FF4F550388000207880606801
:1035B0007860BE60C4F80480012060809848796813
:1035C00000680C30814205D0924978680968084447
:1035D000C0F80880A548016805F10C000844A3491B
:1035E0000860A34800680968884219D29F480068AB
:1035F0009F49086014E0012060808649606809687E
:10360000611A401A9949096808449849086098481D
:1036100000680968884203D29448006894490860A9
:103620004FF4F55020807D480068844212D107E0B5
:103630007A48006840687749096808447749086013
:1036400076480068408828B1744800687249096863
:103650008842EDD18448FEF7D6FE04F10C006CE7F9
:10366000FFE76C480068304446686D480068401BBE
:10367000B0423FF67BAF7C48FEF7C5FE00205CE71A
:1036800070B5054605B970BD62480068854203D330
:1036900061480068854200D3F5E7A5F10C044FF0BE
:1036A000FF317148FEF76EFE608818B12088B0F5D2
:1036B000F55F08D06FA0FFF7BCFD23886288214624
:1036C00073A0FFF7B6FD002060804FF4F550208016
:1036D00052480068844201D2504804604D496068F5
:1036E0000968611A401A61490968081A5F49086047
:1036F0002046FFF797FE5C48FEF785FE00BFC2E755
:103700002DE9F05F06460C46E01C20F00304444817
:103710000068844202D90020BDE8F09F24B93046F9
:10372000FFF7AEFF0020F7E71EB92046FFF700FFC6
:10373000F2E74FF0FF314C48FEF724FE35480068B1
:10374000864203D334480068864204D34648FEF7D5
:103750005AFE3046E0E7A6F10C082E480068A8EBB8
:103760000009D8F80400A0EB0900A0F10C07A7425B
:1037700004D13D48FEF747FE3046CDE704F118007E
:10378000B8422DD2381B39490968081A37490860F0
:1037900009F10C0000EB040A1E48006800EB0A0562
:1037A0004FF4F550288000206880D8F80400686045
:1037B000C5F80890C8F804A01948696800680C307A
:1037C000814205D01349686809680844C0F808A018
:1037D0002846FFF727FE2448FEF715FE30469BE7F4
:1037E0002148FEF710FE2046FFF7A2FE8346BBF1FC
:1037F000000F0CD0A74201D2384600E02046024616
:1038000031465846FFF79DF93046FFF739FF5846D5
:1038100082E7000034000020380000203C00002037
:10382000400000206D656D20696E69742C20657202
:10383000726F7220626567696E206164647265737D
:103840007320307825782C20616E6420656E6420AA
:103850006164647265737320307825780A00000013
:1038600068656170000000008803002044000020AB
:1038700048000020746F20667265652061206261D7
:1038800064206461746120626C6F636B3A0A0000AB
:103890006D656D3A203078253038782C2075736549
:1038A0006420666C61673A2025642C206D6167692D
:1038B0006320636F64653A203078253034780A00DD
:1038C00070B504460D4604FB05F0FFF731FE0646D1
:1038D0002EB104FB05F200213046FFF70EF9304609
:1038E00070BD10B1054B1B68036011B1044B1B6820
:1038F0000B6012B1034B1B6813607047400000203F
:1039000044000020480000202DE9F0470446884686
:1039100091469A46089D42460721204600F06FF9DD
:10392000C4F814902AF00300A061E81C20F00305FD
:10393000E561D4E90610001DB1FBF0F06062606A39
:10394000A06204F12C0000F02BF90020606367698D
:10395000002607E0701C291D00FB0171281D704323
:103960003950761C606AB042F4D80022701E291DBE
:1039700048433A5027620020BDE8F08770B50446FE
:1039800011E000F023FF0646E06AA0F114054FF0B5
:10399000FF302863284600F05CFB606B401E6063CC
:1039A000304600F017FF04F12C0000F0FCF800286E
:1039B000E7D0204600F041F9002070BD2DE9F04726
:1039C0008146884615464946072000F043F90446DB
:1039D00014B90020BDE8F087E81C20F00305E5617C
:1039E000281D00FB08F0A061291D01FB08F0FFF76E
:1039F0009FFD6061606920B9204600F050F9002009
:103A0000E8E7C4F82480606AA06204F12C0000F0AA
:103A1000C7F8002060636769002607E0701C291D55
:103A200000FB0171281D70433950761C606AB0425A
:103A3000F4D80022701E291D48433A5027622046C0
:103A4000C8E770B5044611E000F0C0FE0646E06A23
:103A5000A0F114054FF0FF302863284600F0F9FA72
:103A6000606B401E6063304600F0B4FE04F12C0031
:103A700000F099F80028E7D06069FFF701FE2046C2
:103A800000F00DF9002070BD2DE9F34104464FF020
:103A9000000800F0DBFA054600F098FE074649E012
:103AA000019848B9384600F095FE6FF00100FFF725
:103AB00003F80020BDE8FC8100202863284600F0C0
:103AC00093FB04F12C0005F11401026851600268B7
:103AD0000A600160486000BF606B401C6063019831
:103AE00000280CDDFEF7BDFA804601AA002105F191
:103AF0004C0000F06FFD05F14C0000F0C6FC3846AC
:103B000000F068FE00F03EF9286B08B10020D1E714
:103B1000019800280BDDFEF7A4FAA0EB080001993C
:103B2000081A01900198002801DA0020019000F0A5
:103B30004DFE0746A06A0028B2D0A06A401EA062CF
:103B4000266A306820623460384600F043FE301D3B
:103B5000B0E72DE9F04107463D1F2C6800F036FE26
:103B60008046A06A401CA062206A28602562606BC3
:103B700088B1E06AA0F1140600203063304600F0FE
:103B800068FA606B401E6063404600F023FE00F060
:103B9000F9F8BDE8F081404600F01CFE00BFF8E7F0
:103BA00040600060704701460868884201D10120EA
:103BB00070470020FCE700000268516002680A605C
:103BC000016048607047D0E900215160D0E90012DF
:103BD00011604060006070477047024600210AE0B3
:103BE000514800EB01100078904203D14E4800EBA1
:103BF00001107047491C0629F2DB0020F9E72DE986
:103C0000F04104460D4616462846FFF7E6FF0746F4
:103C100045F080002072082231462046FFF741F827
:103C200000F0D4FD804604F10C01381DFFF7C4FFFD
:103C3000404600F0CFFDBDE8F08170B5044600F0CD
:103C4000C5FD054604F10C00FFF7BDFF284600F056
:103C5000C1FD70BD2DE9F04105460F462846FFF72E
:103C6000BCFF0646F068FFF763FC044614B9002069
:103C7000BDE8F08125720020607208223946204696
:103C8000FFF70FF800F0A2FD804604F10C01301D93
:103C9000FFF792FF404600F09DFD2046E8E770B533
:103CA000044600F093FD054604F10C00FFF78BFF7E
:103CB000284600F08FFD2046FFF7E2FC70BD01466C
:103CC000087A00F0800008B1012070470020FCE76E
:103CD0002DE9F04104460D464FF00008002600276C
:103CE0000CB10B2D02DD0020BDE8F08100F0CFF813
:103CF0001FB92846FFF771FF07467E680CE0A6F162
:103D00000C08082221464046FEF7E5FF18B900F0EE
:103D1000CCF84046E8E73668381D8642EFD100F01F
:103D2000C4F80020E0E700004C00002010B500209F
:103D30006F490880002405E06E4901EBC40000F0E3
:103D4000D3F8641C082CF7DB07206B4908700020AF
:103D50006A4908606A4908606A4800F0C5F810BD01
:103D600070B567480068FFF7EEFA451E614850F8E5
:103D70003500A0F114046148046004F11C0000F057
:103D80005AFD70BD2DE9F04100F020FD074658486E
:103D9000008868BB5A480068FFF7D5FA461E5548A8
:103DA00050F83600A0F114045448006884421BD037
:103DB00051490E705148056804605348007848B96D
:103DC00004F11C0105F11C0000F007FD384600F06D
:103DD00001FD0CE004F11C0105F11C0000F0FDFCEC
:103DE000384600F0F7FC02E0384600F0F3FC02E051
:103DF000384600F0EFFCBDE8F08170B5044600F0F5
:103E0000E5FC054614F8340F20F00F0040F00100E7
:103E100020706278343C374B03EBC20004F114018C
:103E20004268116042684A604160086000BF3449DE
:103E3000A06B0968084332490860284600F0CAFCB4
:103E400070BD70B5044600F0C1FC054604F11400D5
:103E5000D0E900215160D0E900121160406000609B
:103E600000BF94F83510234A02EBC100016881427B
:103E700001D1012100E0002129B12148A16B006896
:103E800088431F490860284600F0A4FC70BD10B5A7
:103E900000F09CFC044616480088401C00B21449FF
:103EA0000880204600F096FC10BD10B500F08EFC96
:103EB00004460F480088401E00B20D49088008469D
:103EC000B0F90000002807DC00200880204600F040
:103ED00081FCFFF757FF02E0204600F07BFC10BD9D
:103EE0000348008880B2704740600060704700005F
:103EF000AC000020A8030020B4000020B000002087
:103F0000B8000020BC0000202C0000200268516096
:103F100002680A60016048607047D0E90021516082
:103F2000D0E90012116040600060704770B5FE4833
:103F3000046800F04BFC05462046FFF782FF042092
:103F400084F8340004F14C0000F064FA2046FFF7D6
:103F5000B6FE012805D1A06F18B92046FFF76DFE07
:103F600004E004F11401F148FFF7D0FF284600F007
:103F700031FCFFF707FF70BD70B5044625466FF0B2
:103F80000100286305F11400FFF7C7FF2846FFF77B
:103F900034FFFFF7F7FE70BD2DE9FC5F04468B464A
:103FA00015461E46DDE90C9ADDE90E7804F1140091
:103FB0004060006000BF1C346560A660C4F80C90CF
:103FC000C4F810A02321D4E90302FEF796FDD4E93A
:103FD000033C63441A1FAFF2AB03D4E9010100F0C4
:103FE0006DFC2060A77667760020E061C4F8288029
:103FF000C4F82C8060612076E06520661C3C00904F
:104000002346AFF28B022146019004F14C0000F0F0
:10401000EAF90020BDE8FC9F2DE9FF5F05460C464C
:1040200016461F46DDE910ABDDE90E892246002168
:104030002846FFF7E4FD3B463246214628468DE8F8
:10404000000FFFF7A9FF04B0BDE8F09FB648006875
:10405000704770B5044694F8340000F00F00022851
:1040600002D04FF0FF3070BD00F0B0FB054604F108
:104070001400FFF752FF04F14C0000F093FA2846B9
:1040800000F0A8FB2046FFF7B8FE0020EBE710B5D4
:1040900004463434A0786070617801208840606004
:1040A000022004F834092046FFF7D3FFFFF7CEFFC4
:1040B00008B1FFF767FE002010BD70B5044694F804
:1040C000340000F00F0010B12046FFF7BAFE04F1F3
:1040D0004C0000F09FF9042084F834002046FFF7DC
:1040E000ACFDA06F50B100F071FB054604F1140166
:1040F0008E48FFF70BFF284600F06CFB002070BDD8
:104100002DE9FF5F06460F4690461D46DDE90EABE2
:1041100031460020FFF79EFD8146B9F1000F03D123
:10412000002004B0BDE8F09F2846FFF701FA0446DE
:1041300024B94846FFF7B3FD0020F2E743463A466C
:10414000314648468DE8300CFFF726FF4846E8E741
:1041500070B5044694F8340000F00F0010B120460A
:10416000FFF76FFE04F14C0000F054F9042084F8CE
:10417000340000F02BFB054604F114016B48FFF7F7
:10418000C5FE284600F026FB002070BD70B500F08B
:104190001DFB05466448046894F8340000F00F00E5
:1041A00001281CD1D4E90510814218D004F1140073
:1041B000FFF7B3FE94F835205D4B03EBC20004F12A
:1041C00014014268116042684A604160086000BFA3
:1041D000284600F0FFFAFFF7D5FD002070BD284605
:1041E00000F0F8FA0020F9E770B5044694F83400BE
:1041F00000F00F00012802D04FF0FF3070BD00F03A
:10420000E5FA054694F8340020F00F0040F0020073
:1042100084F834002046FFF714FE04F14C0000F04F
:10422000C1F9284600F0D6FA0020E7E731B500F0E2
:10423000CDFA05463C4804682046FFF7D5FF6A469C
:10424000002104F14C0000F0C5F904F14C0000F02D
:104250001CF9284600F0BEFAFFF794FD206B801C85
:1042600008B900202063002038BD10B50446204660
:10427000FFF7DCFF10BD2DE9F04104460E46154660
:104280003EB3012E2AD0022E2CD100F09FFA074611
:1042900094F8340000F00F0001280ED12046FFF7FB
:1042A000D0FD287884F8350094F835100120884036
:1042B000A0632046FFF7A1FD07E0287884F83500C9
:1042C00094F8351001208840A063384600F082FA47
:1042D00009E02046FFF7DBFEBDE8F0812046FFF74E
:1042E00037FFF9E700BF00BF0020F5E72DE9F041F7
:1042F0000646FFF7ABFE08B1FFF7C9FD0020FFF748
:104300006CFC0446656816E0A5F10C0708223146EE
:104310003846FEF7E0FC68B9FFF798FE08B1FFF7F2
:10432000C4FD3846BDE8F081B0000020BC0000208C
:10433000A80300202D68201D8542E5D1FFF786FEE9
:1043400008B1FFF7B2FD0020ECE700000268516001
:1043500002680A600160486070472DE9F047044632
:104360000E4617469846DDF8209084F80990607A4A
:1043700020F001006072E66127620020A062C4F8AC
:104380002480002506E004F1140101EBC50000F0D3
:1043900001FA6D1C012DF6DBBDE8F08770B504460F
:1043A000204600F0FAF910B14FF0FF3070BD2068E0
:1043B000A0F11405A86AF9E710B5024600200146ED
:1043C0000EE002F1140303EBC100D0E90043636087
:1043D000D0E9003423604060006000BF481C014603
:1043E0000129EEDB10BD2DE9F84307460C461546C2
:1043F0001E46DDE90889224609213846FFF7FFFB02
:104400004346324629463846CDF80090FFF7A5FFCF
:10441000BDE8F88370B5044600F0D8F9054620469B
:10442000FFF7CAFF284600F0D5F92046FFF705FC44
:10443000002070BD2DE9F84304460E461746984605
:10444000DDF8209021460920FFF704FC054615B948
:104450000020BDE8F88343463A4631462846CDF869
:104460000090FFF77AFF2846F3E770B5044600F0A6
:10447000ADF905462046FFF79FFF284600F0AAF950
:104480002046FFF70CFC002070BD2DE9F8430546DF
:1044900000F09CF980462846FFF78EFF687A20F0EE
:1044A00001006872404600F095F9FDF7DAFD696A8F
:1044B0000844A86200F08AF98046687A00F0040097
:1044C00008B1BA4E00E0BA4E009600242AE019E086
:1044D0005DF824201168142202EBC402881A826A53
:1044E000AB6AD21A00D108E0826AAB6AD21A6FF0C6
:1044F00000439A4200D20CE000BF5DF8240000683F
:104500004DF824005DF8240006EBC4014968884298
:10451000DED100BF2CB15DF824000830611C4DF8DD
:104520002100641C002CD2D0A2480068401CA14984
:1045300008600846076805F114010098FFF706FFB8
:10454000022412E007F0030060B9C4F1010305F191
:10455000140202EBC301C4F101025DF82200FFF76F
:10456000F5FE00E003E0BF08641C012CEAD900BF9F
:10457000687A40F001006872404600F02BF9687AD2
:1045800000F0040058B18C4890F8340000F00F009F
:10459000012804D08848FFF75CFDFFF7F3FB0020FB
:1045A000BDE8F88370B50446607A00F0010010B9E8
:1045B0004FF0FF3070BD00F009F905462046FFF7C7
:1045C000FBFE284600F006F9607A20F001006072D8
:1045D0000020EFE7034649B1012904D0022908D0A1
:1045E000032910D10AE0586A10600CE01068586284
:1045F00009E0587A20F00200587204E0587A40F03E
:104600000200587200BF00BF0020704770B5FDF770
:1046100028FD054600F0DAF8064628E06448006800
:10462000A0F11404A06A281A6FF0004188421DD23C
:104630002046FFF7C1FED4E907108847FDF711FDBA
:104640000546607A00F0020058B1607A00F001007F
:1046500038B1607A20F0010060722046FFF715FF44
:1046600005E0607A20F00100607200E004E050484C
:1046700000F093F80028D1D000BF304600F0AAF82F
:1046800070BD10B54A48FFF789FE10BD70B5FDF743
:10469000E8FC0646FFF7FBFB444805682BE0A5F164
:1046A0001404A06A301A6FF00041884222D22D68AB
:1046B0002046FFF781FEFFF7F8FBD4E90710884793
:1046C000FDF7CFFC0646FFF7E2FB607A00F0020040
:1046D00058B1607A00F0010038B1607A20F0010032
:1046E00060722046FFF7D1FE05E0607A20F00100FD
:1046F000607200E002E02D488542D0D100BFFFF794
:10470000D4FB70BD1CE02948FFF748FE0446601C3E
:1047100038B9FFF79BFC0546FFF766FDFFF732FB54
:104720000CE0FDF79EFC0546601B6FF000418842DF
:1047300003D2641B2046FFF798FD00BFFFF7A6FFDA
:10474000E1E710B5002405E0194901EBC40000F0D1
:1047500021F8641C002CF7D010BD1FB5002405E023
:10476000124901EBC40000F015F8641C002CF7D0CE
:104770000A200421CA01114BCDE90032CDE9021013
:1047800000230F4A0FA10C48FFF746FC0A48FFF729
:104790007EFC1FBD4060006070470146086888428B
:1047A00001D1012070470020FCE70000CC00002070
:1047B000C4000020D4000020E8030020680400208A
:1047C0000547000874696D6572000000EFF3108002
:1047D00072B6704780F310887047324A1368012B15
:1047E00004D04FF0010313602F4A10602F4A11606C
:1047F0002F484FF0805101607047EFF3108272B67E
:104800002848016891B14FF0000101602648016815
:1048100029B1EFF3098121E9F00F00680160234914
:1048200009680968B1E8F00F81F3098882F31088FC
:104830004EF0040E70471D4908601B494FF0000000
:10484000086018494FF0010008601A484FF47F01D2
:10485000D0F8002041EA0201016015484FF0805174
:10486000016015480068006880F3088861B662B688
:1048700070471EF0040F14BFEFF30880EFF30980B8
:1048800020E9F00F40F804ED14BF80F3088880F3AE
:10489000098800B500F038F85DF804EB4EF0040E1E
:1048A00070470000E0000020D8000020DC0000205D
:1048B00004ED00E020ED00E008ED00E0F0B5044676
:1048C0000D461646301D20F00700403801460022F4
:1048D00003E03F4F41F82270521C102AF9D30D62B9
:1048E0004FF0000CC1F824C0C1F828C0C1F82CC09A
:1048F000C1F830C04B638C634FF0807CC1F83CC082
:10490000F0BD34490860704770B505462C1D31482C
:10491000006838B128462F4909688847064606B915
:1049200070BD00BF2CA0E16BFEF783FC2EA0216AB6
:10493000FEF77FFC30A0616AFEF77BFC32A0A16A23
:10494000FEF777FC34A0E16AFEF773FC36A021681D
:10495000FEF76FFC38A06168FEF76BFC3AA0A16817
:10496000FEF767FC3CA0E168FEF763FC3EA021690E
:10497000FEF75FFC40A06169FEF75BFC42A0A16905
:10498000FEF757FC44A0E169FEF753FC46A0216BFB
:10499000FEF74FFC48A0616BFEF74BFC4AA0A16BF1
:1049A000FEF747FC287800F0040038B1FFF74EFB13
:1049B0000646314648A0FEF73CFC02E04EA0FEF75A
:1049C00038FC00BFFEE710B552A0FEF732FC10BD68
:1049D000EFBEADDEE40000207073723A203078251F
:1049E0003038780A000000007230303A20307825E4
:1049F0003038780A000000007230313A20307825D3
:104A00003038780A000000007230323A20307825C1
:104A10003038780A000000007230333A20307825B0
:104A20003038780A000000007230343A203078259F
:104A30003038780A000000007230353A203078258E
:104A40003038780A000000007230363A203078257D
:104A50003038780A000000007230373A203078256C
:104A60003038780A000000007230383A203078255B
:104A70003038780A000000007230393A203078254A
:104A80003038780A000000007231303A2030782542
:104A90003038780A000000007231313A2030782531
:104AA0003038780A000000007231323A2030782520
:104AB0003038780A00000000206C723A20307825E7
:104AC0003038780A000000002070633A20307825E2
:104AD0003038780A000000006861726420666175F1
:104AE0006C74206F6E207468726561643A2025735F
:104AF0000D0A0D0A0000000068617264206661758D
:104B00006C74206F6E2068616E646C65720D0A0DA6
:104B10000A00000073687574646F776E2E2E2E0A7B
:104B20000000000008B513E00020431E05224FF4EA
:104B300081710090FC48FDF731FD48B9FB480178D0
:104B4000FBA0FEF776FBFD480178FDA0FEF771FBA8
:104B5000EAE71CB50026002700240025A1E030204C
:104B600094FBF0F100FB114495FBF0F100FB1155B3
:104B7000002301226946F548FDF7ADFE002841D12A
:104B8000F348007897FBF0F100FB1170F0B90021B9
:104B9000F048FEF779FFF04941F82500084650F843
:104BA000250080B16DB1ED490D702021EC48FDF775
:104BB0009BFC00F0FF08B8F1000F02D0E9A0FEF75F
:104BC00038FB6D1C02E0ECA0FEF733FB681EE249E7
:104BD00051F8200068B1DE48007897FBF0F100FB47
:104BE0001171681EDC4A52F820009DF800204254E2
:104BF0007F1C302097FBF0F100FB1170E4499DF819
:104C000000200A540023012201A9E248FDF763FEB7
:104C1000002846D1CE48007896FBF0F100FB1160E9
:104C2000002822D10021DC48FEF72EFFDB4941F8A5
:104C30002400084650F82400A0B18CB1C7490C707C
:104C40000421D748FDF750FC00F0FF08B8F1000F31
:104C500003D0C4A0FEF7EDFA02E0D2A0FEF7E9FA15
:104C6000641C02E0C4A0FEF7E4FA601ECB4951F8D0
:104C7000200068B1B648007896FBF0F100FB1161A6
:104C8000601EC64A52F820009DF804204254761C4B
:104C9000302096FBF0F100FB1160CD499DF8042017
:104CA0000A545CE72DE9F04106460F4615460024FC
:104CB00000BF07E0325D05EB4400C6A10CF0F2FE38
:104CC000601C84B2BC42F5DB002005F814004FF6EE
:104CD000FF7000EA4400BDE8F08196B00020149017
:104CE000FDE04FF0FF33042215A9BC48FDF7F3FDAA
:104CF0000028F5D115980128F2DB1598401E159073
:104D0000B7A109A80CF0C4FB13AA012114A8FFF74E
:104D1000C9FF13A909A80CF0A8FBB3A109A80CF0BE
:104D2000A4FB0B2209A9B2480AF0A6FBB1490870FE
:104D3000B1A1AF480CF095F8AD490A200CF04CF841
:104D4000B148007A072828D2DFE800F004090E13E2
:104D5000181D2200ADA106A80CF09AFB1DE0ADA124
:104D600006A80CF095FB18E0ACA106A80CF090FB8F
:104D700013E0ACA106A80CF08BFB0EE0ACA106A8DA
:104D80000CF086FB09E0ADA106A80CF081FB04E065
:104D9000ACA106A80CF07CFB00BF00BF02AA012159
:104DA0009948801DFFF77EFF01AA01219648C01D8A
:104DB000FFF778FF05AA01219348FFF773FF04AAC4
:104DC00001219148401CFFF76DFF03AA01218E4885
:104DD000801CFFF767FF02A909A80CF046FB9CA105
:104DE00009A80CF042FB01A909A80CF03EFB98A110
:104DF00009A80CF03AFB06A909A80CF036FB95A10E
:104E000009A80CF032FB05A909A80CF02EFB91A112
:104E100009A80CF02AFB04A909A80CF026FB8DA117
:104E200009A80CF022FB03A909A80CF01EFB002026
:104E3000894908602EE04848159B50F82300864BAE
:104E40001B68C25C5548159B50F82300824B1B68B9
:104E5000C15C09AB81A0FEF7ECF909A800903E48BF
:104E6000159950F821007C490968435C4B48159915
:104E700050F8210078490968425C7DA15C480BF03C
:104E8000F0FF5B490A200BF0A7FF73480068401C45
:104E900071490860704800682D4909788842CADB6A
:104EA00076A0FEF7C6F909A97AA0FEF7C2F93B4938
:104EB000159A51F82200FEF74CFE00203749159A4A
:104EC00041F822002449159A41F8220048480AF086
:104ED000C1FD9DF85000401CC0B2149000BF00E717
:104EE0002DE9F04107461549104805F09AFF0122C7
:104EF0000E492848FDF767FC064616B168A0FEF784
:104F000098F901220D491148FDF75DFC044614B1E2
:104F100068A0FEF78EF902210348FDF7E5FA054681
:104F20000DB110A0D0E0D1E08C160020EA000020E6
:104F300074656D3A2025640A00000000EB00002033
:104F400068756D3A2025640A00000000240D0020D9
:104F50000C010020442100204C180020EE0000200D
:104F6000CC16002072745F6576656E745F73656E33
:104F700064204552520A00006572726F72206E6F93
:104F800020706F6F6C206C656674200A0000000052
:104F90005C170020F00C00200C2100208C17002052
:104FA000AC16002073656E64206D656D6C63645F84
:104FB000646174615F6576656E7420206576656EE8
:104FC00074207375636365737320200A000000000A
:104FD0002C170020253032640000000058150020F6
:104FE000303A6461746100002E6373760000000043
:104FF000C80A0020F500002074656D2C68756D2CC2
:1050000074696D65000000005044002053756E64A3
:10501000617900004D6F6E646179000054756573AD
:10502000646179005765646E65736461790000009E
:105030005468757273646179000000004672696497
:105040006179000053617475726461790000000039
:105050002D0000003A000000F00000202070747263
:105060003A2025642C202564202C25730A0000009A
:1050700025642C25642C25730000000020747279AF
:1050800020746F2072656C6561736520626C6F635C
:105090006B0A00002074696D652025730A0000000A
:1050A00072745F6D715F73656E645F74656D2045CA
:1050B00052520A0072745F6D715F73656E645F684F
:1050C000756D204552520A00FEF7B3F8DD4801889D
:1050D000DDA0FEF7AEF8BDE8F0811CB50020019020
:1050E0002EE0DDA0FEF7A5F801A84FF0FF33062261
:1050F00044210090DD48FDF751FA002820D10198A5
:10510000402805D106F0A2F8D9A0FEF792F817E0E2
:1051100006F09CF80122DB49DB48FDF754FB04460E
:10512000DAA00199FEF785F8DEA0FEF782F8D548EF
:105130000178E3A0FEF77DF814B1E4A0FEF779F85A
:10514000CFE708B534E0E6480178AFF21C2008F05C
:1051500039FDE4480178AFF2182008F033FD002053
:10516000431E062202210090DF48FDF717FAF8B926
:10517000DB480078DD490978884206DD0020DC49FB
:105180000860DCA0FEF755F802E00120D84908606D
:10519000D4480078DA490978884206DD0020D449ED
:1051A0000860D8A0FEF745F802E00120D049086069
:1051B000C9E708B517E0D6A0FEF73BF80020431E6C
:1051C000062202210090C848FDF7E8F958B9C44802
:1051D0000178AFF2A42008F0F5FCC2480178AFF2E4
:1051E000A02008F0EFFCE6E72DE9FC41CBA008F099
:1051F000E9FCD7A0FEF71DF8DAA0FEF71AF8DEA04A
:10520000FEF717F8002713E0E1A010210B46C82293
:10521000CDE9001096211E2005F063FAE0A01021D0
:105220000B46C822CDE900109621322005F059FA2C
:1052300006F05BFF0028E7D10122DDA1DD480AF07E
:10524000F0F8DD4800784FF48063DC4ADCA1009080
:10525000DD48FEF759FBD84800784FF48063DB4AFD
:10526000DBA10090DC48FEF74FFB00204FF480618B
:105270000123DA4ACDE90010D9A1DD48FDF716FA7D
:10528000C4B200204FF480610123DA4ACDE9001056
:10529000D9A1DD48FDF70AFA054614B1DBA0FDF7F8
:1052A000C8FF15B1E1A0FDF7C4FF00204FF48071E5
:1052B0000423E64ACDE90010E5A17348FDF7F6F9AD
:1052C000054615B1E6A0FDF7B4FF0022EBA1864824
:1052D000FDF7D1F8C4B234B1EDA0FDF7AAFF4FF04D
:1052E000FF30BDE8FC810022F0A16048FDF7C3F863
:1052F000C4B22CB1F2A0FDF79CFF4FF0FF30F0E7F5
:105300000022EAA1F848FDF7B6F8C4B22CB1ECA02F
:10531000FDF78FFF4FF0FF30E3E70022F3A1F748DE
:10532000FDF7A9F8C4B22CB1F5A0FDF782FF4FF04C
:10533000FF30D6E702200090424803880022F94956
:10534000F9A0FFF777F8FB4908600846006820B12C
:1053500008460068FFF799F8064616B9F6A0FDF76B
:1053600068FF14200221CB010022CDE90010FA4988
:10537000FAA0FEF7C5FEFE4908600846006820B1A5
:1053800008460068FEF783FE02E0FAA0FDF751FF31
:10539000002704E00020FD4941F827007F1C302F42
:1053A000F8DB14200421CB010022CDE90010F849DC
:1053B000F8A0FEF7A5FEFA4908600846006818B193
:1053C00008460068FEF763FE142004210B02002249
:1053D000CDE90010F349F4A0FEF792FEF74908600A
:1053E0000846006818B108460068FEF750FE1E2007
:1053F00003214FF400730022CDE90010F049F1A021
:10540000FEF77EFEF34908600846006818B10846BA
:105410000068FEF73CFE142001210B020022CDE9BA
:105420000010ED49EDA0FEF76BFEF0490860E94879
:10543000006818B108460068FEF729FE1420022112
:105440008023D5E1E800002073616D70667265719C
:105450003A2564200A00000074687265616420695E
:105460006E204C434453484F570A0000AC160020AE
:105470002077616B657570206279206576656E7442
:1054800036200A00EE000020581500202077616BBE
:10549000657570206279206576656E7432202564AA
:1054A000200A00002073656E64696E6720206D71AC
:1054B0005F74656D5F6D656D6C6364200A0000004C
:1054C000696E64657820256420200A00206D715F74
:1054D00074656D5F6D656D6C6364204552520A00A2
:1054E000EA000020EB0000208C160020EC000020D9
:1054F000940123426F7665722074656D0A00000086
:10550000ED0000206F7665722068756D0A0000005E
:10551000696E2077696669200A00000041542B41BA
:10552000544B434C445354413D223339353831397F
:105530003037323637323537383131333234222C46
:10554000223132333435363738220D0A000000005C
:105550002A2A20CEC2B6C8BCECB2E2CFB5CDB32A5F
:105560002A0D0A0052543053A3BA52542D74687253
:1055700065616420200D0A004D4355A3BA53544D74
:105580003332463130335A455436200D0A0000007C
:1055900053442043617264204572726F722100008F
:1055A000506C6561736520436865636B2120000062
:1055B000303A0000680600200C0100200C19002081
:1055C00074656D6D700000000C2100200C1D002022
:1055D00068756D6D7000000044210020580D00209A
:1055E000206D715F44485431315F74656D00000077
:1055F000F00C002058110020206D715F4448543198
:10560000315F68756D000000240D0020696E6974BB
:10561000206D6573736167655F74656D2071756575
:105620007565206661696C65642E0A00696E69742F
:10563000206D6573736167655F68756D2071756551
:105640007565206661696C65642E0A008C15002002
:10565000206D715F74656D5F6D656D6C63640000D6
:10566000696E69746D715F74656D5F6D656D6C6396
:1056700064206661696C65642E0A000044485431F8
:10568000315F646174615F6576656E74000000006F
:10569000696E6974206576656E7420646874313152
:1056A000206661696C65642E0A0000006D656D6C92
:1056B00063645F646174615F6576656E74000000A9
:1056C000696E6974206576656E74206D656D6C63B6
:1056D000645F646174615F6576656E7420206661E5
:1056E000696C65642E0A0000CC16002073656E6438
:1056F000646174615F6576656E7400000C1700204C
:10570000696E6974206576656E742073656E646475
:105710006174615F6576656E7420206661696C6591
:10572000642E0A00E14E000844485431315F676539
:1057300074000000FC000020444831315F74696D42
:10574000657220737461727420737563636573731B
:1057500066756C6C0A000000254B00087573617259
:10576000745F6465616C5F6576656E74000000004F
:10577000000100206C65645F7468726561645F633A
:10578000726561745F6572726F7200008C17002021
:10579000534B00087265636576444854313100000C
:1057A00004010020DB4C00087468726561645F6D61
:1057B000705F72656C656173650000000801002010
:1057C000DB5000086C63645F73686F7777617665A0
:1057D0000000000010010020435100086F76657240
:1057E0005F74656D68756D20000000001401002075
:1057F0000022CDE90010074907A0FEF781FC084907
:1058000008600846006818B108460068FEF73FFCCB
:10581000002066E5B3510008776966692000000042
:1058200018010020404870474048704770B5404814
:1058300000684FF47A72B0FBF2F1B1F1807F00D3CF
:105840001DE021F07F40401E4FF0E02250615017D4
:105850000F22002807DA13071D0E364B00F00F0445
:10586000241F1D5503E013071C0E334B1C5400BFAF
:1058700000204FF0E02290610720106100BF00F08F
:105880007DF808F039F900F045F901F0D8F805F095
:10589000F4FA00F057F805F079F805F09BF807F0F6
:1058A000EDFC00200BF09FFC08F033F8FCF716FC31
:1058B000FFF7BAFF0446FFF7B5FF05462146FDF79F
:1058C000E7FD04F0E5FF01201C49087070BD10B52C
:1058D000FDF7C2F8FCF7D3FBFDF7CBF810BD10B510
:1058E0000446FEF7D4FA19E020780A280AD10D21DF
:1058F0001348FCF7EDFA00BF80211148FCF756FB76
:105900000028F9D014F8011B0D48FCF7E1FA00BF9C
:1059100080210B48FCF74AFB0028F9D020780028AA
:10592000E2D1FEF7C2FA10BD7C2100207C310020BC
:105930000000002018ED00E000E400E02C01002051
:105940000048004008B501214820FBF70DFE20204B
:10595000ADF8000010208DF8030003208DF8020040
:105960002020ADF8000069460348FBF7DBFA202150
:105970000148FBF786FB08BD0018014000B585B063
:1059800001210420FBF7F0FD01218803FBF7ECFD6A
:105990004FF40070ADF8100018208DF813000320AC
:1059A0008DF8120004A94F48FBF7BCFA4FF4806051
:1059B000ADF8100004208DF8130004A94948FBF746
:1059C000B1FA4FF4E13000900020ADF80400ADF8DA
:1059D0000600ADF80800ADF80C000C20ADF80A0088
:1059E00069464148FCF77BF901213F48FCF703FA7F
:1059F00005B000BD70B504460D4629462046FCF7AB
:105A000067FA00BF80212046FCF7D0FA0028F9D0C1
:105A100070BD2DE9F04107460D461646002405E00D
:105A2000295D3846FFF7E6FF601CC4B2B442F7DBDD
:105A300000BF40213846FCF7B9FA0028F9D0BDE88C
:105A4000F08170B506460C46002500BF615D30460A
:105A5000FFF7D0FF6D1C605D0028F7D100BF40212B
:105A60003046FCF7A3FA0028F9D070BD2DE9F041CB
:105A700005460C46260AE7B231462846FCF728FAC6
:105A800000BF80212846FCF791FA0028F9D039465A
:105A90002846FCF71DFA00BF80212846FCF786FA4D
:105AA0000028F9D0BDE8F08170B504460D46E1B29A
:105AB0000D48FCF70DFA00BF80210B48FCF776FA81
:105AC0000028F9D0204670BD10B5044600BF202143
:105AD0000548FCF76BFA0028F9D00348FCF7FCF9FD
